:100000000C9463000C948B000C948B000C948B006C
:100010000C948B000C948B000C948B000C948B0034
:100020000C948B000C948B000C948B000C948B0024
:100030000C948B000C948B000C948B000C948B0014
:100040000C9422050C948B000C94F0040C94CA04BC
:100050000C948B000C948B000C948B000C948B00F4
:100060000C948B000C948B000000000024002700EF
:100070002A0000000000250028002B0000000000DE
:1000800023002600290004040404040404040202DA
:100090000202020203030303030301020408102007
:1000A0004080010204081020010204081020000012
:1000B0000008000201000003040700000000000027
:1000C00000006C05740811241FBECFEFD8E0DEBF1E
:1000D000CDBF22E0ACE4B1E001C01D92A135B20772
:1000E000E1F711E0A0E0B1E0EEEBF5E102C0059030
:1000F0000D92AC34B107D9F710E0C2E6D0E004C0ED
:100100002197FE010E94D108C136D107C9F70E948C
:1001100084060C94D20A0C940000AF92BF92CF9246
:10012000DF92EF92FF920F931F93CF93DF936C01B7
:100130007B018B01040F151FEB015E01AE18BF0898
:10014000C017D10759F06991D601ED91FC9101904A
:10015000F081E02DC6010995892B79F7C501DF9162
:10016000CF911F910F91FF90EF90DF90CF90BF90B4
:10017000AF900895FC01538D448D252F30E0842FDE
:1001800090E0821B930B541710F0CF9608950197BF
:100190000895FC01918D828D981761F0A28DAE0FAC
:1001A000BF2FB11D5D968C91928D9F5F9F73928F33
:1001B00090E008958FEF9FEF0895FC01918D828D5F
:1001C000981731F0828DE80FF11D858D90E008952C
:1001D0008FEF9FEF0895FC01918D228D892F90E084
:1001E000805C9F4F821B91098F739927089585E545
:1001F00091E00E94EB0021E0892B09F420E0822F9E
:10020000089580E090E0892B29F00E94F700811189
:100210000C9400000895FC01A48DA80FB92FB11D06
:10022000A35ABF4F2C91848D90E001968F7399272C
:10023000848FA689B7892C93A089B1898C9183700A
:1002400080648C93938D848D981306C00288F38903
:10025000E02D80818F7D80830895EF92FF920F9330
:100260001F93CF93DF93EC0181E0888F9B8D8C8D62
:1002700098131AC0E889F989808185FF15C09FB756
:10028000F894EE89FF896083E889F9898081837019
:10029000806480839FBF81E090E0DF91CF911F91C8
:1002A0000F91FF90EF900895F62E0B8D10E00F5FE9
:1002B0001F4F0F731127E02E8C8D8E110CC00FB6BF
:1002C00007FCFACFE889F989808185FFF5CFCE0157
:1002D0000E940B01F1CFEB8DEC0FFD2FF11DE35AC6
:1002E000FF4FF0829FB7F8940B8FEA89FB898081DA
:1002F0008062CFCFCF93DF93EC01888D8823B9F054
:10030000AA89BB89E889F9898C9185FD03C0808120
:1003100086FD0DC00FB607FCF7CF8C9185FFF2CF9D
:10032000808185FFEDCFCE010E940B01E9CFDF91E7
:10033000CF910895833081F028F4813099F0823094
:10034000A9F008958730A9F08830C9F08430B1F45D
:10035000809180008F7D03C0809180008F77809393
:100360008000089584B58F7784BD089584B58F7D0E
:10037000FBCF8091B0008F778093B000089580917B
:10038000B0008F7DF9CFCF93DF93282F30E0F901B4
:10039000E255FF4F8491F901E656FF4FD491F901E0
:1003A000EA57FF4FC491CC23A1F081110E949A011A
:1003B000EC2FF0E0EE0FFF1FE458FF4FA591B49132
:1003C000EC91ED2381E090E009F480E0DF91CF91A2
:1003D000089580E090E0FACF1F93CF93DF93282F0A
:1003E00030E0F901E255FF4F8491F901E656FF4FE5
:1003F000D491F901EA57FF4FC491CC23A9F0162FED
:1004000081110E949A01EC2FF0E0EE0FFF1FEE58D1
:10041000FF4FA591B4918FB7F894EC91111108C0DA
:10042000D095DE23DC938FBFDF91CF911F9108958C
:10043000DE2BF8CFCF93DF9390E0FC01E656FF4F21
:1004400024918A579F4FFC0184918823C9F090E042
:10045000880F991FFC01E859FF4FA591B491FC0149
:10046000EE58FF4FC591D49161110DC09FB7F8941C
:100470008C91209582238C938881282328839FBF89
:10048000DF91CF910895623051F49FB7F8943C9179
:10049000822F809583238C93E8812E2BEFCF8FB70B
:1004A000F894EC912E2B2C938FBFEACF1F93CF9310
:1004B000DF93182FEB0161E00E941A02209739F4B4
:1004C00060E0812FDF91CF911F910C94EC01CF3F21
:1004D000D10511F461E0F5CFE12FF0E0E255FF4FD7
:1004E000E491E33031F140F4E130B1F0E230E1F099
:1004F000C038D1057CF7E4CFE73029F1E83059F175
:10050000E430B1F780918000806280938000D093C6
:100510008B00C0938A0004C084B5806884BDC7BDC9
:10052000DF91CF911F91089584B5806284BDC8BDCD
:10053000F7CF80918000806880938000D0938900FD
:10054000C0938800EDCF8091B00080688093B000A8
:10055000C093B300E5CF8091B00080628093B0007B
:10056000C093B400DDCF8E3008F08E508770806469
:1005700080937C0080917A00806480937A008091DF
:100580007A0086FDFCCF80917800909179000895E3
:100590002FB7F894609151017091520180915301ED
:1005A000909154012FBF0895CF92DF92EF92FF9266
:1005B000CF93DF93EC010E94C8026B017C018C8118
:1005C0009D81AE81BF81B701A601481B590B6A0B03
:1005D0007B0B88859985AA85BB8584179507A60717
:1005E000B70758F488810E94C3019981891729F0BF
:1005F0008983CC82DD82EE82FF8299818A81882381
:1006000029F081E0992329F080E003C081E0913056
:10061000D9F7DF91CF91FF90EF90DF90CF900895C1
:10062000FC01118260E080810C94EC01FC010190DE
:100630000020E9F73197AF01481B590BBC0185E554
:1006400091E00C948D00FC0124813581232B39F439
:1006500021E0FB018081882349F020E007C08081F0
:1006600091810E94C20A21E0892BB9F7822F089557
:100670000F931F93CF93DF93EC01888199810097AB
:1006800059F02A813B812617370730F081E0DF914E
:10069000CF911F910F9108958B016F5F7F4F0E9443
:1006A000FC09009759F0998388831B830A832C8166
:1006B0003D81232B59F7FC011082E8CF80E0E7CF82
:1006C000CF93DF93EC0188819981009711F00E940C
:1006D0007309198218821D821C821B821A82DF9183
:1006E000CF910895EF92FF920F931F93CF93DF93D3
:1006F000EC018617970781F0FB010081118101153C
:10070000110539F0E480F580B7010E9438038111AA
:100710000BC0CE010E946003CE01DF91CF911F91EB
:100720000F91FF90EF900895FD82EC82B8018881CF
:1007300099810E94CB0AF0CFEF92FF920F931F9303
:10074000CF93DF93EC017B01198218821B821A82FE
:100750001D821C82FB0101900020E9F731978F0177
:10076000061B170BB8010E943803811109C0CE0186
:10077000DF91CF911F910F91FF90EF900C94600348
:100780001D830C83B70188819981DF91CF911F91DF
:100790000F91FF90EF900C94CB0AFC018081918126
:1007A000009711F00C9473090895CF92DF92EF92A5
:1007B000FF920F931F93CF93DF9300D000D000D010
:1007C000CDB7DEB78C01BC0184E192E00E947203D8
:1007D00068E171E0CE0101960E949C03C090140272
:1007E000D0901502C114D10409F4CAC0E0901802D7
:1007F000F0901902E114F104B9F08D819E81E80EA8
:10080000F91EB701CE0101960E943803882309F42E
:10081000B7C029813A818D819E81B601820F931FD5
:100820000E94CB0AFE82ED824D815E8169817A81D0
:1008300085E591E00E948D008FE191E00E94160312
:10084000CE0101960E94CD0362E271E0C8010E94D0
:100850002303882391F06091130281E08093F301D8
:1008600070E08091F2010E94560284EF91E00E94B4
:10087000100386EF91E00E94100366E271E0C80168
:100880000E942303882391F06091130281E08093FA
:10089000F50170E08091F4010E94560282EF91E030
:1008A0000E94100386EF91E00E9410036DE271E058
:1008B000C8010E942303882391F06091130281E014
:1008C0008093F70170E08091F6010E94560282EF5A
:1008D00091E00E94100384EF91E00E94100363E313
:1008E00071E0C8010E9423038823D9F10E94C80245
:1008F0006B017C018091FA019091FB01A091FC01B8
:10090000B091FD01B701A601481B590B6A0B7B0B87
:100910008091FE019091FF01A0910002B09101022F
:1009200084179507A607B707A0F48091F9018111F4
:100930002CC081E08093F90161E08091F8010E9470
:10094000EC01C092FA01D092FB01E092FC01F0921E
:10095000FD0182EF91E00E94100384EF91E00E947C
:10096000100326960FB6F894DEBF0FBECDBFDF9101
:10097000CF911F910F91FF90EF90DF90CF9008954E
:10098000CE0101960E9460034FCF88EF91E00E9454
:100990001003D7CF1F920F920FB60F9211242F93EF
:1009A0003F934F935F936F937F938F939F93AF93F7
:1009B000BF93EF93FF9385E591E00E940B01FF91B8
:1009C000EF91BF91AF919F918F917F916F915F91C7
:1009D0004F913F912F910F900FBE0F901F90189540
:1009E0001F920F920FB60F9211242F938F939F9304
:1009F000EF93FF93E0916501F09166018081E091B2
:100A00006B01F0916C0182FD1BC0908180916E01A1
:100A10008F5F8F7320916F01821741F0E0916E011B
:100A2000F0E0EB5AFE4F958F80936E01FF91EF91AE
:100A30009F918F912F910F900FBE0F901F9018953F
:100A40008081F4CF1F920F920FB60F9211242F9333
:100A50003F938F939F93AF93BF9380915101909158
:100A60005201A0915301B09154013091500123E003
:100A7000230F2D3758F50196A11DB11D209350016C
:100A80008093510190935201A0935301B09354016C
:100A900080914C0190914D01A0914E01B0914F0178
:100AA0000196A11DB11D80934C0190934D01A0931F
:100AB0004E01B0934F01BF91AF919F918F913F91A4
:100AC0002F910F900FBE0F901F90189526E8230FBF
:100AD0000296A11DB11DD2CF4F925F926F927F926D
:100AE000AF92BF92CF92DF92EF92FF920F931F933C
:100AF000CF93DF93CDB7DEB766970FB6F894DEBF1E
:100B00000FBECDBFE5E5F1E01382128288EE482EDC
:100B100083E0582E612C712C448255826682778244
:100B20008AE091E09183808385EC90E095878487CB
:100B300084EC90E09787868780EC90E0918B808BA7
:100B400081EC90E0938B828B82EC90E0958B848B90
:100B500086EC90E0978B868B118E128E138E148EFE
:100B600001E412E082E0F801808381E082838383E4
:100B70000E94C802F801648375838683978382E3A9
:100B800090E0A0E0B0E080879187A287B3878EE0F5
:100B9000809340029EE3C92E92E0D92E8BE0F601AD
:100BA000808311822CE3E22E22E0F22E8AE0F7010C
:100BB000808311820AE312E089E0F80180831182C8
:100BC00030E3A32E32E0B32E80913E0290913F029B
:100BD000F501918380830E94C802F50162837383CB
:100BE0008483958384EF91E0A0E0B0E086839783CF
:100BF000A087B18746E2A42E42E0B42E80913C0249
:100C000090913D02F501918380830E94C802F50115
:100C1000628373838483958346825782608671865C
:100C20005CE1A52E52E0B52E80913A0290913B02F4
:100C3000F501918380830E94C802F501628373836A
:100C4000848395838AEF90E0A0E0B0E08683978369
:100C5000A087B187EAE1F2E087E080831182F601A4
:100C6000B080C180F701D080E180F801F08001817F
:100C70008AE0ECE1F2E0DE011D9601900D928A958A
:100C8000E1F78CE0E1E4F2E0DE01119601900D92D3
:100C90008A95E1F71091400261E271E084E192E00F
:100CA0000E949C0382EF91E0FC01B082C182D2825B
:100CB000E382F48205832AE0FE013D96A8EFB1E0CD
:100CC00001900D922A95E1F72CE0FE013196A2E009
:100CD000B2E001900D922A95E1F7FC01148F66961F
:100CE0000FB6F894DEBF0FBECDBFDF91CF911F913D
:100CF0000F91FF90EF90DF90CF90BF90AF907F90DB
:100D00006F905F904F900895CF93DF93CDB7DEB78C
:100D1000A1970FB6F894DEBF0FBECDBF789484B50F
:100D2000826084BD84B5816084BD85B5826085BDE7
:100D300085B5816085BD80916E00816080936E0075
:100D40001092810080918100826080938100809167
:100D50008100816080938100809180008160809318
:100D600080008091B10084608093B1008091B000D8
:100D700081608093B00080917A00846080937A00D3
:100D800080917A00826080937A0080917A008160FD
:100D900080937A0080917A00806880937A00109224
:100DA000C100E0916501F091660182E08083E091ED
:100DB0006101F09162011082E0916301F0916401A0
:100DC00080E1808310926D01E0916901F0916A01E8
:100DD00086E08083E0916701F09168018081806105
:100DE0008083E0916701F091680180818860808351
:100DF000E0916701F0916801808180688083E091D3
:100E00006701F091680180818F7D808380910E025F
:100E10000E94B30297FD03969595879595958795C2
:100E20008093130261E08091F2010E941A0261E056
:100E30008091F4010E941A0261E08091F8010E9401
:100E40001A0280910402882339F080910202909165
:100E5000050262E0911103C060E0809102020E94ED
:100E60001A02809102020E94C30180930302109231
:100E70000F0210921002109211021092120262E2FE
:100E800071E0CE0101960E949C03CE0101960E9462
:100E9000D503CE0101960E94CD0382E092E00E942C
:100EA000D40238EE832E33E0932EA12CB12C4AE0ED
:100EB000C42ED12CE12CF12C50E0252E50E0352E03
:100EC00080910E020E94B30297FD03969595879537
:100ED000959587958093130282E092E00E94D40258
:100EE000882309F47FC01A8219821C821B821E8209
:100EF0001D8264E172E0CE0101960E94720362E2FB
:100F000071E0CE0101960E942303182FCE010196B5
:100F10000E94CD03112309F465C00E94C8026093AA
:100F20000F0270931002809311029093120266E2F6
:100F300071E0CE0101960E949C03CE0101960E94B1
:100F4000D503CE0101960E94CD03809140020E94FC
:100F5000B3022C01990F6608770877FEAFC06DE2E7
:100F600085E591E00E942D0122273327A90124194C
:100F700035094609570919A28E010F5D1F4FCA0195
:100F8000B901A70196010E94AF08605DF801629364
:100F90008F01211531054105510589F7011511050D
:100FA00019F0C8010E9416038FE191E00E94160318
:100FB00081E492E00E94D402882341F089E391E029
:100FC0000E9416038FE191E00E9416032114310460
:100FD00009F476CF0E94F700882309F471CF0E94AC
:100FE00000006ECF80910F0290911002A09111022B
:100FF000B0911202892B8A2B8B2B09F4A6CF0E9469
:10100000C80200910F02109110022091110230913C
:101010001202601B710B820B930BA50194010E94BD
:10102000AF0829013A0182E04816510461047104B5
:1010300039F51A8219821C821B821E821D8264E18C
:1010400072E0CE0101960E94720366E271E0CE0169
:1010500001960E942303182FCE0101960E94CD0312
:10106000112371F06DE271E0CE0101960E949C03A4
:10107000CE0101960E94D503CE0101960E94CD03B8
:10108000D301C2010597A109B10963E371E0029799
:10109000A105B10508F44DCFE7E04E1651046104F7
:1010A000710408F452CF10920F02109210021092A5
:1010B00011021092120262E271E03BCFA301920191
:1010C00019A28E010F5D1F4FCA01B901A701960138
:1010D0000E94AF08605DF80162938F012115310510
:1010E0004105510589F75ACF84E192E00C94CD0374
:1010F0002F923F924F925F926F927F928F929F9228
:10110000AF92BF92CF92DF92EF92FF920F931F9315
:10111000CF93DF93CDB7DEB7CA1BDB0B0FB6F894C6
:10112000DEBF0FBECDBF09942A88398848885F8406
:101130006E847D848C849B84AA84B984C884DF8077
:10114000EE80FD800C811B81AA81B981CE0FD11D5B
:101150000FB6F894DEBF0FBECDBFED010895A1E23A
:101160001A2EAA1BBB1BFD010DC0AA1FBB1FEE1F21
:10117000FF1FA217B307E407F50720F0A21BB30B6C
:10118000E40BF50B661F771F881F991F1A9469F7E8
:1011900060957095809590959B01AC01BD01CF0144
:1011A0000895EE0FFF1F0590F491E02D09940F9321
:1011B0001F93CF93DF938230910510F482E090E08B
:1011C000E0914F02F091500230E020E0B0E0A0E06A
:1011D000309799F42115310509F44AC0281B390BC1
:1011E00024303105D8F58A819B816115710589F11B
:1011F000FB0193838283FE0111C0408151810281F2
:10120000138148175907E0F04817590799F41097C8
:1012100061F012960C93129713961C933296CF019D
:10122000DF91CF911F910F91089500934F0210937A
:101230005002F4CF2115310551F04217530738F011
:10124000A901DB019A01BD01DF01F801C1CFEF0166
:10125000F9CF9093500280934F02CDCFFE01E20F61
:10126000F31F819391932250310939832883D7CF7B
:1012700020914D0230914E02232B41F42091020126
:101280003091030130934E0220934D0220910001D2
:10129000309101012115310541F42DB73EB7409140
:1012A000040150910501241B350BE0914D02F09192
:1012B0004E02E217F307A0F42E1B3F0B2817390745
:1012C00078F0AC014E5F5F4F2417350748F04E0FA2
:1012D0005F1F50934E0240934D02819391939FCF95
:1012E000F0E0E0E09CCFCF93DF930097E9F0FC01C2
:1012F000329713821282A0914F02B0915002ED01F9
:1013000030E020E01097A1F420813181820F931FFB
:1013100020914D0230914E022817390709F061C023
:10132000F0934E02E0934D02DF91CF910895EA01D0
:10133000CE17DF07E8F54A815B819E014115510513
:10134000B1F7E901FB83EA8349915991C40FD51F95
:10135000EC17FD0761F4808191810296840F951F3F
:10136000E90199838883828193819B838A83F0E05A
:10137000E0E012968D919C9113970097B9F52D910D
:101380003C911197CD010296820F931F20914D023F
:1013900030914E022817390739F6309751F51092DF
:1013A000500210924F02B0934E02A0934D02BCCF58
:1013B000D383C28340815181840F951FC817D907F9
:1013C00061F44E5F5F4F88819981480F591F5183A7
:1013D00040838A819B81938382832115310509F0A3
:1013E000B0CFF0935002E0934F029ECFFD01DC019D
:1013F000C0CF13821282D7CFB0E0A0E0E2E0FAE0E3
:101400000C947A088C01009751F4CB010E94D70804
:101410008C01C801CDB7DEB7E0E10C949608FC0161
:10142000E60FF71F9C0122503109E217F30708F479
:101430009DC0D901CD91DC911197C617D70798F0BF
:10144000C530D10530F3CE0104978617970708F30E
:10145000C61BD70B2297C193D1936D937C93CF0179
:101460000E947309D6CF5B01AC1ABD0A4C018C0EE9
:101470009D1EA0914F02B0915002512C412CF12C95
:10148000E12C109731F580914D0290914E02881514
:10149000990509F05CC04616570608F058C08091BF
:1014A000000190910101009741F48DB79EB74091E2
:1014B000040150910501841B950BE817F90708F00A
:1014C00055C0F0934E02E0934D02F90171836083A1
:1014D000A0CF8D919C91119712966C9012971396B4
:1014E0007C901397A815B90559F56C0142E0C40E1C
:1014F000D11CCA14DB0420F1AC014A195B09DA01E2
:101500001296159780F06282738251834083D901CD
:101510006D937C93E114F10471F0D7011396FC9361
:10152000EE93129776CF22968C0F9D1FF90191832F
:101530008083F301EFCFF0935002E0934F0269CF25
:101540004816590608F42C017D01D3019ACFCB012E
:101550000E94D7087C01009749F0AE01B8010E94B3
:10156000B90AC8010E947309870153CF10E000E057
:1015700050CFFB01DC0102C001900D924150504060
:10158000D8F70895FB01DC018D91019080190110BD
:10159000D9F3990B0895FB01DC0101900D92002015
:1015A000E1F7089510E0C2E6D0E004C0FE010E9419
:0E15B000D1082196C336D107C9F7F894FFCFB2
:1015BE00000051028000000000002D018D00BA00D5
:1015CE007A01EB00C900DD0053544154453A000D39
:1015DE000A005245440059454C4C4F57004752455E
:1015EE00454E00424C494E4B00427574746F6E204E
:0C15FE00697320707265737365640000EF
:00000001FF
