:100000000C9462000C948A000C948A000C948A0070
:100010000C948A000C948A000C948A000C948A0038
:100020000C948A000C948A000C948A000C948A0028
:100030000C948A000C948A000C948A000C948A0018
:100040000C94D9020C948A000C94A7020C9481029F
:100050000C948A000C948A000C948A000C948A00F8
:100060000C948A000C948A000000000024002700F1
:100070002A0000000000250028002B0000000000DE
:1000800023002600290004040404040404040202DA
:100090000202020203030303030301020408102007
:1000A0004080010204081020010204081020000012
:1000B0000008000201000003040700000000000027
:1000C0000000230311241FBECFEFD8E0DEBFCDBF59
:1000D00011E0A0E0B1E0ECEAF9E002C005900D9279
:1000E000AE33B107D9F721E0AEE3B1E001C01D9214
:1000F000A43FB207E1F710E0C2E6D0E004C02197C8
:10010000FE010E94CE04C136D107C9F70E946303E5
:100110000C94D4040C940000AF92BF92CF92DF9263
:10012000EF92FF920F931F93CF93DF936C017B01AC
:100130008B01040F151FEB015E01AE18BF08C0173D
:10014000D10759F06991D601ED91FC910190F081B0
:10015000E02DC6010995892B79F7C501DF91CF9173
:100160001F910F91FF90EF90DF90CF90BF90AF90D5
:100170000895FC01538D448D252F30E0842F90E0AD
:10018000821B930B541710F0CF9608950197089592
:10019000FC01918D828D981761F0A28DAE0FBF2F5B
:1001A000B11D5D968C91928D9F5F9F73928F90E0B1
:1001B00008958FEF9FEF0895FC01918D828D981720
:1001C00031F0828DE80FF11D858D90E008958FEF5D
:1001D0009FEF0895FC01918D228D892F90E0805C26
:1001E0009F4F821B91098F739927089587E491E0AF
:1001F0000E94EA0021E0892B09F420E0822F089573
:1002000080E090E0892B29F00E94F60081110C9487
:1002100000000895FC01A48DA80FB92FB11DA35AA9
:10022000BF4F2C91848D90E001968F739927848F16
:10023000A689B7892C93A089B1898C918370806439
:100240008C93938D848D981306C00288F389E02DDA
:1002500080818F7D80830895EF92FF920F931F938B
:10026000CF93DF93EC0181E0888F9B8D8C8D981369
:100270001AC0E889F989808185FF15C09FB7F89475
:10028000EE89FF896083E889F989808183708064C1
:1002900080839FBF81E090E0DF91CF911F910F910C
:1002A000FF90EF900895F62E0B8D10E00F5F1F4F1B
:1002B0000F731127E02E8C8D8E110CC00FB607FC2A
:1002C000FACFE889F989808185FFF5CFCE010E94B8
:1002D0000A01F1CFEB8DEC0FFD2FF11DE35AFF4F1B
:1002E000F0829FB7F8940B8FEA89FB898081806246
:1002F000CFCFCF93DF93EC01888D8823B9F0AA8903
:10030000BB89E889F9898C9185FD03C0808186FDD0
:100310000DC00FB607FCF7CF8C9185FFF2CF80811F
:1003200085FFEDCFCE010E940A01E9CFDF91CF9189
:100330000895833081F028F4813099F08230A9F05B
:1003400008958730A9F08830C9F08430B1F48091E5
:1003500080008F7D03C0809180008F778093800024
:10036000089584B58F7784BD089584B58F7DFBCFC4
:100370008091B0008F778093B00008958091B00095
:100380008F7DF9CFCF93DF93282F30E0F901E2552D
:10039000FF4F8491F901E656FF4FD491F901EA57D6
:1003A000FF4FC491CC23A1F081110E949901EC2F41
:1003B000F0E0EE0FFF1FE458FF4FA591B491EC91D0
:1003C000ED2381E090E009F480E0DF91CF91089582
:1003D00080E090E0FACF1F93CF93DF93282F30E097
:1003E000F901E255FF4F8491F901E656FF4FD49190
:1003F000F901EA57FF4FC491CC23A9F0162F8111C0
:100400000E949901EC2FF0E0EE0FFF1FEE58FF4F16
:10041000A591B4918FB7F894EC91111108C0D095C3
:10042000DE23DC938FBFDF91CF911F910895DE2BE8
:10043000F8CFCF93DF9390E0FC01E656FF4F249175
:100440008A579F4FFC0184918823C9F090E0880F60
:10045000991FFC01E859FF4FA591B491FC01EE589A
:10046000FF4FC591D49161110DC09FB7F8948C9145
:10047000209582238C938881282328839FBFDF9136
:10048000CF910895623051F49FB7F8943C91822F38
:10049000809583238C93E8812E2BEFCF8FB7F89430
:1004A000EC912E2B2C938FBFEACF60E0FC01808172
:1004B0000C94EB0161E0FC0180810C94EB0161E0A4
:1004C000FC0180810C941902CF93DF93FC01019011
:1004D0000020E9F73197AF01481B590BBC0187E4B5
:1004E00091E00E948C00EC0142E050E062E171E09A
:1004F00087E491E00E948C008C0F9D1FDF91CF91CB
:1005000008951F920F920FB60F9211242F933F93CD
:100510004F935F936F937F938F939F93AF93BF930B
:10052000EF93FF9387E491E00E940A01FF91EF911E
:10053000BF91AF919F918F917F916F915F914F91FB
:100540003F912F910F900FBE0F901F9018951F9203
:100550000F920FB60F9211242F938F939F93EF93C7
:10056000FF93E0915701F09158018081E0915D0186
:10057000F0915E0182FD1BC09081809160018F5FD0
:100580008F7320916101821741F0E0916001F0E0EA
:10059000E95BFE4F958F80936001FF91EF919F91F2
:1005A0008F912F910F900FBE0F901F901895808103
:1005B000F4CF1F920F920FB60F9211242F933F93F7
:1005C0008F939F93AF93BF93809143019091440188
:1005D000A0914501B09146013091420123E0230FE3
:1005E0002D3758F50196A11DB11D2093420180932E
:1005F000430190934401A0934501B093460180913B
:100600003E0190913F01A0914001B09141010196BE
:10061000A11DB11D80933E0190933F01A093400125
:10062000B0934101BF91AF919F918F913F912F91D5
:100630000F900FBE0F901F90189526E8230F02967B
:10064000A11DB11DD2CFE7E4F1E01382128288EE42
:1006500093E0A0E0B0E084839583A683B78384E031
:1006600091E09183808385EC90E09587848784EC8A
:1006700090E09787868780EC90E0918B808B81EC6F
:1006800090E0938B828B82EC90E0958B848B86EC50
:1006900090E0978B868B118E128E138E148EE8EE5F
:1006A000F1E082E0808381E0828383838BE080932A
:1006B000E7018AE08093E60189E08093E50187E025
:1006C0008093E4010895789484B5826084BD84B5F4
:1006D000816084BD85B5826085BD85B5816085BD3D
:1006E00080916E00816080936E00109281008091F5
:1006F000810082608093810080918100816080937D
:100700008100809180008160809380008091B100A1
:1007100084608093B1008091B00081608093B000CC
:1007200080917A00846080937A0080917A00826060
:1007300080937A0080917A00816080937A00809122
:100740007A00806880937A001092C100E09157018E
:10075000F091580182E08083E0915301F0915401BF
:100760001082E0915501F091560180E18083109252
:100770005F01E0915B01F0915C0186E08083E09194
:100780005901F0915A01808180618083E091590183
:10079000F0915A01808188608083E0915901F09145
:1007A0005A01808180688083E0915901F0915A015B
:1007B00080818F7D808387EE91E00E945F0286EECC
:1007C00091E00E945F0285EE91E00E945F0284EE5C
:1007D00091E00E945F028091EA01882329F08091D4
:1007E000EB0162E0811101C060E08091E8010E94AC
:1007F00019022FB7F8948091430190914401A09180
:100800004501B09146012FBF8093EC019093ED011B
:10081000A093EE01B093EF0188EE93E0A0E0B0E08A
:100820008093F0019093F101A093F201B093F30152
:100830008091E9010E94C2018093E90188EE882E2F
:1008400083E0982EA12CB12CC0E0D0E02FB7F89413
:10085000609143017091440180914501909146015E
:100860002FBFA50194010E94AC0484EE91E020FD0D
:1008700053C00E945A028FB7F894C0904301D090A1
:100880004401E0904501F09046018FBF8091EC015A
:100890009091ED01A091EE01B091EF01B701A60199
:1008A000481B590B6A0B7B0B8091F0019091F10171
:1008B000A091F201B091F30184179507A607B7073D
:1008C00090F48091E8010E94C2019091E90189179A
:1008D00051F08093E901C092EC01D092ED01E092D9
:1008E000EE01F092EF018091E9019091EA019923E4
:1008F000B1F08823B1F087E291E00E94640287EEB4
:1009000091E00E94550286EE91E00E945A0285EE27
:1009100091E00E94550215C00E945502ACCF813073
:1009200051F785E191E00E94640287EE91E00E9418
:100930005A0286EE91E00E94550285EE91E00E94F7
:100940005A02209709F482CF0E94F600882309F406
:100950007DCF0E9400007ACFA1E21A2EAA1BBB1BFA
:10096000FD010DC0AA1FBB1FEE1FFF1FA217B3077B
:10097000E407F50720F0A21BB30BE40BF50B661F91
:10098000771F881F991F1A9469F760957095809555
:1009900090959B01AC01BD01CF010895EE0FFF1FA3
:0C09A0000590F491E02D0994F894FFCF2D
:1009AC00000000002C018C00B9007901EA00C8009D
:1009BC00DC000D0A00427574746F6E206973207030
:1009CC0072657373656400427574746F6E2069731D
:0E09DC00204E4F5420707265737365640000E6
:00000001FF
